:100000000C94AB000C94E10A0C94BA0A0C94930A79
:100010000C946C0A0C94D3000C94D3000C94450AF5
:100020000C94D3000C94D3000C94A4070C941308E4
:100030000C94D3000C94D3000C94D3000C94D300F4
:100040000C94D3000C94D3000C94D3000C94D300E4
:100050000C94D3000C94D3000C94D3000C945A0746
:100060000C94D3000C94D3000C94D3000C94D300C4
:100070000C94D3000C94D3000C94D3000C94D300B4
:100080000C94D3000C94D3000C94D3000C94D300A4
:100090000C94D3000C94D3000C94D3000C94D30094
:1000A0000C94D3000C94D3000C94D300080B0002E2
:1000B0000202000009040000010202000005240001
:1000C0001001052401010104240206052406000193
:1000D0000705810310004009040100020A00000026
:1000E00007050202400000070583024000000403E8
:1000F000090412010002EF02014041233780000190
:100100000102030141726475696E6F204C4C43001B
:1001100041726475696E6F204D6963726F000501ED
:100120000902A1010901A10085010509190129039D
:10013000150025019503750181029501750581035F
:1001400005010930093109381581257F75089503A6
:100150008106C0C0080B11241FBECFEFDAE0DEBF5E
:10016000CDBF11E0A0E0B1E0E8EAF2E202C0059004
:100170000D92AA36B107D9F722E0AAE6B1E001C094
:100180001D92A437B207E1F710E0CBEAD0E004C03B
:100190002197FE010E940A10CA3AD107C9F70E94AE
:1001A000150D0C9452110C940000CF92DF92EF9237
:1001B000FF920F931F93CF93DF93D901E8016A0158
:1001C000F9014217530714F06901FA01882309F471
:1001D00040C0CB016C157D050CF4C6019F018E1744
:1001E0009F070CF49C01A417B50734F4CF01821BC0
:1001F000930B9C012C0D3D1D0D2C000CEE08FF08EF
:10020000032E000C440B550B2C193D094E095F09B8
:10021000AEEFBFEF0E94BA0F9F01FF0F440B550BCB
:100220002C193D094E095F090E949B0FDA01C90193
:100230008F5F9F47A109B1098883998382E090E08D
:10024000DF91CF911F910F91FF90EF90DF90CF90B2
:10025000089590E080E0F4CFFC018091A70188230D
:1002600011F13FB7F89482E08093E9002091F20009
:10027000822F90E01816190614F481E090E088238C
:1002800039F0289A44E64093A6014091F10040835A
:10029000222339F02091F200211103C02BE6209394
:1002A000E8003FBF08958FEF9FEF0895CF93DF934E
:1002B0001F92CDB7DEB76983DC01ED91FC9102801E
:1002C000F381E02D41E050E0BE016F5F7F4F099563
:1002D0000F90DF91CF91089583E08093E9008091A2
:1002E000F200882319F08AE38093E8000895CF9301
:1002F000DF931F92CDB7DEB7FC018485958597FD0E
:1003000008C02FEF3FEF358724870F90DF91CF9103
:100310000895CE0101960E942C01019719F489815C
:1003200090E0F3CF8FEF9FEFF0CF0F931F93CF931A
:10033000DF931F92CDB7DEB78C01FC0184859585D4
:1003400097FF0BC0CE0101960E942C01019771F41A
:10035000898190E0F80195878487F80184859585E7
:100360000F90DF91CF911F910F9108958FEF9FEF25
:10037000F1CFFC018485958597FD0BC09FB7F8945C
:1003800082E08093E9008091F2009FBF90E00196A7
:1003900008959FB7F89482E08093E9008091F2007D
:1003A0009FBF90E008953FB7F8948091A20190918B
:1003B000A301A091A401B091A50126B5A89B05C0F9
:1003C0002F3F19F00196A11DB11D3FBFBA2FA92FD4
:1003D000982F8827BC01CD01620F711D811D911DD1
:1003E00042E0660F771F881F991F4A95D1F708953D
:1003F000CF92DF92EF92FF920E94D3016B017C01BA
:100400000E94D3016C197D098E099F09683E7340D3
:1004100081059105A8F3FF90EF90DF90CF900895AC
:1004200029B1237030E080916A0190916B01880FAF
:10043000991F880F991F822B932B8230910549F0C9
:100440008B30910531F08D30910519F08430910594
:1004500051F440919B0150919C014F5F5F4F50932D
:100460009C0140939B018130910541F0AC014750C4
:1004700051094230510510F00E9749F480919B01CB
:1004800090919C01019790939C0180939B013093E4
:100490006B0120936A01089540919301509194015A
:1004A000209191013091920142175307B4F4909139
:1004B000E8009570E1F39091E80092FD19C08093F7
:1004C000F100809193019091940101968F73992787
:1004D000892B19F48EEF8093E8008091930190911D
:1004E00094010196909394018093930181E0089583
:1004F00080E00895EF92FF920F931F93CF93DF93C5
:10050000F82E192FE62E042F81E0860F880F0E9407
:100510004C0283E00E944C02CF2DD12FEC0EFD2E19
:10052000F11CCE15DF05B9F007FF13C0FE01849161
:100530000E944C02182F80E00E944C0281232196D9
:100540008111EFCFDF91CF911F910F91FF90EF902D
:1005500008958881EDCF81E0F5CFDF92EF92FF9291
:100560000F931F93CF93DF93D82E8A01EB017B016A
:10057000E40EF51ECE15DF0559F0D7FE12C0FE01C0
:1005800084910E944C0221968111F4CF0FEF1FEF4E
:10059000C801DF91CF911F910F91FF90EF90DF90F5
:1005A00008958881EECF2FB7F89487708093E90083
:1005B0009091E800892F807295FF04C09091F2001D
:1005C00080E4891B2FBF089583E00E94D30290E04E
:1005D00008957F928F929F92AF92BF92CF92DF92B7
:1005E000EF92FF920F931F93CF93DF93C82E8B014F
:1005F0007A018091A701811110C08FEF9FEFDF91E9
:10060000CF911F910F91FF90EF90DF90CF90BF900F
:10061000AF909F908F907F9008958091970180FF79
:1006200005C08091E00082608093E000CE2DDF2D38
:10063000D12C8AEFB82E8C2D8770982E8C2D80723D
:10064000882E8C2D8074782E9AE3A92E209719F489
:10065000DD2009F44EC08C2D0E94D302811106C00A
:10066000BA94BB2051F20E94F801F0CF8C171D06FE
:1006700011F00CF08C2F9FB7F8949092E900209124
:10068000E80025FD02C09FBFE1CF282F30E0C21B4C
:10069000D30B882029F08150A0F01092F100FBCFFD
:1006A000F801C7FC0AC0815050F041914093F1001D
:1006B000FACF44914093F10031968150D0F7020F68
:1006C000131FDD2021F0A092E800D12CDCCF809117
:1006D000E80085FD07C0A092E800DD24D3942097B0
:1006E00091F2F3CF209779F6772069F2A092E80093
:1006F000CACF5D9A84E680939601C70180CFCF93DD
:10070000DF93EC0180913801882331F083E00E946F
:10071000E9021816190634F081E090E09B838A8381
:1007200080E090E0DF91CF910895615030F020910A
:10073000F100FC0120830196F8CF289A84E680938B
:10074000A60108958091890181110DC082E08093F6
:10075000850184E0809386011092880110928701C0
:1007600081E08093890185E891E008950F931F93BC
:10077000CF93DF931F92CDB7DEB782E0898342E447
:1007800050E06CEA70E080E80E94AD020E94A20393
:10079000DC0112960D911C910115110589F0D8010B
:1007A000ED91FC910280F381E02DBE016F5F7F4FE0
:1007B000C801099597FD04C0F80100851185ECCFAB
:1007C00089810F90DF91CF911F910F910895CF9361
:1007D000DF93FC01DB01818114963C911497682F13
:1007E000630F7727771F683071059CF5C281D3812D
:1007F000209739F5B383A283908112969C93129728
:1008000013968C93139715968C911597890F808367
:1008100090E080E0831708F52181C22FD0E0BE016F
:1008200060507F4F16964D915C911797480F591F56
:10083000EA014881EB0148832F5F21830196EACFCB
:10084000EA014885598541155105D1F7B987A8872F
:10085000D3CF80E0DF91CF91089581E0FBCF089561
:10086000DC01FB0191818081813A31F49D7F81E03F
:10087000913009F080E008958132E1F79B3029F44E
:1008800082811F968C9381E008959A3099F7828136
:1008900050968C93F8CFFC014281FB012481358175
:1008A0004217130611F40C94300480E00895DC0123
:1008B000FB0188E4808389E4818384E482831D963C
:1008C0009C911D979F709F5B93831D968D919C912A
:1008D00024E0969587952A95E1F78F708F5B848346
:1008E00085E00895EF92FF920F931F93CF93DF93CC
:1008F000FB012081213889F52381223271F5DC0149
:1009000012964C91248135814217130631F58C01E2
:10091000FC01C385D485F12CE12C209791F04C810A
:100920005D816A817B818E81811180E80E94AD02A8
:100930008F3F980759F0E80EF91E0990D881C02D15
:10094000ECCF81E0D8011F968C93C701DF91CF9146
:100950001F910F91FF90EF90089590E080E0F6CF07
:10096000CF93DF93CDB7DEB769970FB6F894DEBFAC
:100970000FBECDBFFC01DB018C918F5F8C939E017C
:100980002D5F3F4F8DE0D9011D928A95E9F729E04F
:10099000298384E08A8391E09D8383E08E832A8784
:1009A00021E22B879C879D879F8722E2288B27E067
:1009B0002B8B25E02C8B8E8B20E430E0388F2F8B17
:1009C000998F82818B8395858685998B8A8B83818C
:1009D00080688D8B49E150E0BE016F5F7F4F80E002
:1009E0000E94AD0269960FB6F894DEBF0FBECDBF70
:1009F000DF91CF910895CF9380917D0181112CC01B
:100A0000C1E0C0937001C093710186E791E09093BB
:100A1000730180937201109275011092740183E446
:100A200091E090936D0180936C0110927801109287
:100A3000770110927A0110927901C0937B01C093E3
:100A40007C0181EC809376010E94A2036CE671E048
:100A50000E94E703C0937D018CE691E0CF91089559
:100A6000FC014281FB01248135814217130611F4F8
:100A70000C94300480E00895EF92FF920F931F933F
:100A8000CF93DF93FB012081213871F5238122323E
:100A900059F5DC0112964C912481358142171306D9
:100AA00019F5EC010B851C85F12CE12C01151105C4
:100AB00089F0F801448155816281738180E80E9448
:100AC000AD028F3F980749F0E80EF91ED8010D914D
:100AD0001C91ECCF81E08F87C701DF91CF911F91EF
:100AE0000F91FF90EF90089590E080E0F6CFCF93C4
:100AF000DF93CDB7DEB769970FB6F894DEBF0FBEB0
:100B0000CDBFFC01DB018C918F5F8C939E012D5F2B
:100B10003F4F8DE0D9011D928A95E9F729E029839D
:100B200084E08A8391E09D8383E08E832A8721E29B
:100B30002B879C879D879F8722E2288B27E02B8B22
:100B400025E02C8B8E8B20E430E0388F2F8B998F13
:100B500082818B8395858685998B8A8B838180683A
:100B60008D8B49E150E0BE016F5F7F4F80E00E94B6
:100B7000AD0269960FB6F894DEBF0FBECDBFDF9110
:100B8000CF9108958F929F92AF92BF92CF92DF92B2
:100B9000EF92FF920F931F93CF93DF93CDB7DEB702
:100BA000ADB6BEB680916F022DB73EB7281B310996
:100BB0000FB6F8943EBF0FBE2DBF8DB79EB70196FE
:100BC0006C01E0903E02F12C80913A0290913B0240
:100BD000D601FC019F01281B390B2E153F051CF483
:100BE00021912D93F7CF80913F02882359F1809175
:100BF00036029091370228E097FD09C068E671E05F
:100C00000E94F60F6DE270E00E94F60F262F809191
:100C100038029091390268E097FD08C068E671E0FB
:100C20000E94F60F6DE270E00E94F60FF601EE0DE5
:100C3000FF1D90E1699FB0011124262B2083F7014D
:100C400031967F0186010E0D1F1D209144023091C7
:100C500045024091420250914302609120027091FE
:100C600021028091400281700E94D500E80EF91E99
:100C700086010E0D1F1D20914802309149024091BE
:100C800046025091470260912202709123028091A6
:100C90004002869581700E94D500E80EF91E8601FB
:100CA0000E0D1F1D20914C0230914D0240914A02C1
:100CB00050914B0260912402709125028091400274
:100CC00082FB882780F90E94D500E80EF91E860174
:100CD0000E0D1F1D209150023091510240914E0285
:100CE00050914F026091260270912702809140023C
:100CF00083FB882780F90E94D500E80EF91E860143
:100D00000E0D1F1D20915402309155024091520248
:100D10005091530260912802709129028091400203
:100D2000829581700E94D500E80EF91E86010E0D95
:100D30001F1D209158023091590240915602509146
:100D4000570260912A0270912B028091400285FB2C
:100D5000882780F90E94D500E80EF91E86010E0D45
:100D60001F1D20915C0230915D0240915A0250910A
:100D70005B0260912E0270912F028091410281707E
:100D80000E94D500E80EF91E86010E0D1F1D209150
:100D900060023091610240915E0250915F02609169
:100DA0002C0270912D0280914102869581700E94E3
:100DB000D500E80EF91E86010E0D1F1D209164025C
:100DC000309165024091620250916302609130025D
:100DD000709131028091410282FB882780F90E9444
:100DE000D500E80EF91E86010E0D1F1D2091680228
:100DF000309169024091660250916702609132021F
:100E0000709133028091410283FB882780F90E9410
:100E1000D5008E0D9F1D8601080F191F20916C02B1
:100E200030916D0240916A0250916B0260913402E0
:100E30007091350280914102829581700E94D500A7
:100E40000E94FB044C0140916F0280916E0250E0C1
:100E50007A01FFEFEF1AFF0A2DB73EB72E193F09AF
:100E60000FB6F8943EBF0FBE2DBF0DB71EB70F5F74
:100E70001F4FEDB7FEB78183B601C80101960E94EE
:100E80004911F4018381A701B80180640E94E9023D
:100E90000FB6F894BEBE0FBEADBEDF91CF911F91CD
:100EA0000F91FF90EF90DF90CF90BF90AF909F9009
:100EB0008F9008951F920F920FB60F9211242F93C7
:100EC0003F938F939F93AF93BF9380919E01909197
:100ED0009F01A091A001B091A10130919D0123E05B
:100EE000230F2D3758F50196A11DB11D20939D01AB
:100EF00080939E0190939F01A093A001B093A101C4
:100F00008091A2019091A301A091A401B091A501AB
:100F10000196A11DB11D8093A2019093A301A093FE
:100F2000A401B093A501BF91AF919F918F913F9183
:100F30002F910F900FBE0F901F90189526E8230F4A
:100F40000296A11DB11DD2CF1F920F920FB60F9224
:100F500011248F939F938091E1009091E100937F02
:100F60009093E10083FF0FC01092E90091E090930D
:100F7000EB001092EC0092E39093ED001092A70129
:100F800098E09093F00082FF22C093E09093E900F4
:100F90009091F200992319F09AE39093E8009091D0
:100FA0009601992341F0909196019150909396016A
:100FB000911101C05D989091A601992341F0909103
:100FC000A60191509093A601911101C0289884FF29
:100FD00018C08091E2008E7E81608093E200809153
:100FE000E1008F7E8093E100809197018E7E806189
:100FF000809397019F918F910F900FBE0F901F903C
:10100000189580FFF7CF8091E2008E7E80618093FB
:10101000E2008091E1008E7E8093E1008091970153
:101020008E7E8160E5CF1F920F920FB60F92112432
:10103000CF92DF92EF92FF920F931F932F933F93E4
:101040004F935F936F937F938F939F93AF93BF93D0
:10105000EF93FF93CF93DF93CDB7DEB76C97DEBFEF
:10106000CDBF1092E9008091E80083FF25C068E0C1
:10107000CE0145960E94950382EF8093E8008D890A
:1010800087FF39C09091E80090FFFCCF982F9076B1
:1010900009F034C19E894F89588D2F89F88C9111A0
:1010A00031C0803861F5809198018093F1001092F1
:1010B000F1008EEF8093E8006C960FB6F894DEBFD7
:1010C0000FBECDBFDF91CF91FF91EF91BF91AF9157
:1010D0009F918F917F916F915F914F913F912F9150
:1010E0001F910F91FF90EF90DF90CF900F900FBE68
:1010F0000F901F9018959EEF9093E800C7CF109225
:10110000F100D5CF913059F48111D3CF4130510541
:1011100081F6809198018D7F80939801CACF93309A
:1011200049F48111C6CF4130510519F680919801DB
:101130008260F2CF953041F48091E80080FFFCCFCF
:1011400020682093E300B5CF963009F0A9C00B8D3D
:101150001C8D22E01092E9001092940110929301EC
:10116000F2122EC010929201109291010E94B603C9
:101170001F8299E09983FA8291E09E8390EA988792
:101180009AEF99872091930130919401275F3F4F07
:101190003C832B838D831092E9001092940110926E
:1011A0009301109392010093910149E050E0BE0138
:1011B0006F5F7F4F80E00E94AD020E94B60379CF3F
:1011C00010939201009391010E94A203DC011296F8
:1011D0000D911C910115110509F451C1D801ED9132
:1011E000FC910480F581E02DBE016B5E7F4FC8014C
:1011F0000995009709F03EC1F80100851185EACFF5
:10120000F3E0FF120EC08F89882309F440C08230BA
:1012100061F440E86DE080E191E00E947A02811182
:1012200048CF81E28093EB0047CF813029F440E83A
:101230006BE084E091E0F1CF833099F70E94A20344
:10124000DC011296ED90FC908E010F5F1F4F68013C
:10125000E114F10479F0D701ED91FC910680F7815A
:10126000E02DB801C7010995080F111DF701E084B1
:10127000F184EECFD8011C92F60101900020E9F72D
:101280003197BF016C197D0940E0C601C6CF6EEEF3
:1012900070E0FB01449150E080E80E94AD0209CF6C
:1012A000973009F4BECF983021F481E08093F100AB
:1012B00000CF993009F0FDCE837009F0B2CFE1E0A4
:1012C000F1E081E031E096E32191222371F08093F7
:1012D000E9003093EB00DF0111972C912093EC0093
:1012E0009093ED008F5F873079F78EE78093EA0067
:1012F0001092EA008F898093A701DBCE8B8D9C8DA5
:101300001092E9001092940110929301909392012F
:1013100080939101898D811192C08E899D89913A26
:1013200049F4813209F07DCF47E050E061E371E09C
:1013300080E0B3CF913209F074CF833269F48F89A2
:10134000988DB0E0A0E08093070190930801A093EE
:101350000901B0930A01ADCE803269F48091E800B2
:1013600082FFFCCF67E081E391E00E9495038BEF61
:101370008093E8009ECE823209F09BCE8F898093C5
:101380003801EEEFFFE7859194918B3F9C4D51F131
:10139000E0E0F8E08091310190913201A0913301B9
:1013A000B0913401803B9440A105B105F1F48091E6
:1013B000380180FD1AC0EE3F8AE0F80789F587E71B
:1013C00097E791838083809160008093950188E105
:1013D0009BE00FB6F894A895809360000FBE9093A1
:1013E000600067CEEEEFFAE0D5CF8081918187373C
:1013F000974709F05ECEA895809160008861809340
:1014000060008091950180936000EE3F2AE0F20732
:1014100089F08091FE0A9091FF0A9183808349CEE2
:10142000808191818737980751F29093FF0A8093CA
:10143000FE0AC5CF1092FF0A1092FE0A3ACE0E9411
:10144000A203DC0112960D911C910115110509F4FE
:10145000E8CED801ED91FC910190F081E02DBE0124
:101460006B5E7F4FC8010995811123CEF80100857D
:101470001185EBCF181619060CF41BCED2CEF1E075
:10148000FF12BECE62EF70E004CF1F920F920FB634
:101490000F9211242F933F934F935F936F937F93FA
:1014A0008F939F93AF93BF93EF93FF93E0911301BB
:1014B000F09114010995FF91EF91BF91AF919F9128
:1014C0008F917F916F915F914F913F912F910F90ED
:1014D0000FBE0F901F9018951F920F920FB60F928C
:1014E00011242F933F934F935F936F937F938F9329
:1014F0009F93AF93BF93EF93FF93E0911101F0910E
:1015000012010995FF91EF91BF91AF919F918F913A
:101510007F916F915F914F913F912F910F900FBEEF
:101520000F901F9018951F920F920FB60F921124D3
:101530002F933F934F935F936F937F938F939F93DB
:10154000AF93BF93EF93FF93E0910F01F0911001E0
:101550000995FF91EF91BF91AF919F918F917F91ED
:101560006F915F914F913F912F910F900FBE0F9010
:101570001F9018951F920F920FB60F9211242F9360
:101580003F934F935F936F937F938F939F93AF930B
:10159000BF93EF93FF93E0910D01F0910E01099538
:1015A000FF91EF91BF91AF919F918F917F916F913B
:1015B0005F914F913F912F910F900FBE0F901F9011
:1015C00018951F920F920FB60F9211242F933F93ED
:1015D0004F935F936F937F938F939F93AF93BF933B
:1015E000EF93FF93E0910B01F0910C010995FF91AE
:1015F000EF91BF91AF919F918F917F916F915F918B
:101600004F913F912F910F900FBE0F901F90189503
:10161000EF92FF920F931F93CF93DF93CDB7DEB777
:10162000C659D1090FB6F894DEBF0FBECDBF1092D8
:10163000AB011092AA0188EE93E0A0E0B0E08093A5
:10164000AC019093AD01A093AE01B093AF018FE4D4
:1016500091E09093A9018093A8018FEF9FEF909361
:10166000B5018093B40110921F028091170281117D
:1016700013C010921202109211028EE191E0909329
:1016800014028093130286E390E0909316028093F5
:10169000150281E0809317028091090281112CC00C
:1016A00011E01093FC011093FD0182E092E0909311
:1016B000FF018093FE01109201021092000281E668
:1016C00091E09093F9018093F80110920402109236
:1016D0000302109206021092050210930702109363
:1016E000080281EC809302020E94A20368EF71E07D
:1016F0000E94E70310930902E0910302F0910402B3
:10170000309709F070C181E192E0909304028093D8
:1017100003028091050290910602209115023091FA
:101720001602820F931F9093060280930502109277
:101730003B0210923A0210923E0210924302109223
:1017400042028FEF93E090934502809344021092FF
:1017500047021092460290934902809348021092E9
:101760004B0210924A0290934D0280934C021092C9
:101770004F0210924E0290935102809350021092A9
:101780005302109252029093550280935402109289
:101790005702109256029093590280935802109269
:1017A0005B0210925A0290935D0280935C02109249
:1017B0005F0210925E029093610280936002109229
:1017C0006302109262029093650280936402109209
:1017D00067021092660290936902809368021092E9
:1017E0006B0210926A0290936D0280936C0233E058
:1017F00030936E024AE040933D0210923F023093D4
:1018000040021092410225E0298381E08A8399E019
:101810009B832C83E1EAED838E8355E85F833887D1
:1018200029879A8759E15B878C8759E25D874E87C4
:1018300055E15F87188A55E2598B8A8B75E77B8B58
:101840008C8B65E96D8B4E8B45E54F8B188E45E68D
:10185000498F1A8E51E85B8F42E04C8F7D8F8E8FBF
:101860006F8FF6E0F8A359A33AA32BA38CA39DA3F3
:101870008EA326E12FA388A780E889A786E28AA7FE
:101880008FEF8BA78FE78CA77DA780E18EA76FA72F
:1018900048ABE9AB1AAA9BAB80E38CAB9DAB81E371
:1018A0008EAB5FAB48AF80EC89AF8AAF8AE390E044
:1018B0000E9424107C018AE3FE013196D701019039
:1018C0000D928A95E1F787E090E00E9424108C0148
:1018D000DC0111961C921E921396FC92EE921297C6
:1018E0008AE390E015969C938E93149716961C921B
:1018F0000E94FB04FC01A385B485109709F07DC00C
:101900001487038785859685D80114962D913C917F
:10191000820F931F9687858790913D02892F869528
:1019200086958695977009F070C080933E0210915D
:101930003E02812F90E00E94241090933B028093FE
:101940003A0281E090913F02911101C080E01C5F5A
:10195000810F80936F021092210210922002109248
:101960002302109222021092250210922402109259
:101970002702109226021092290210922802109239
:101980002B0210922A0210922D0210922C02109219
:101990002F0210922E0210923102109230021092F9
:1019A00033021092320210923502109234028FEFFD
:1019B0009FEF909337028093360290933902809381
:1019C000380290E080E020913E0228171906F9F0D5
:1019D000F4F0E0913A02F0913B02E80FF91F108217
:1019E0000196F1CFFC01808191810097D9F781E1C7
:1019F00092E0918380838DCEDC018D919C91119733
:101A00000097D1F70D931C937DCF8F5F8ECFCA5671
:101A1000DF4F0FB6F894DEBF0FBECDBFDF91CF9181
:101A20001F910F91FF90EF900895CF93DF9300D017
:101A300000D01F92CDB7DEB7789484B5826084BDA4
:101A400084B5816084BD85B5826085BD85B58160C2
:101A500085BD80916E00816080936E001092810040
:101A600080918100826080938100809181008160FB
:101A700080938100809180008160809380008091BC
:101A800091008260809391008091910081608093A9
:101A90009100809190008160809390008091C100BE
:101AA00084608093C1008091C10082608093C100F6
:101AB0008091C10081608093C1008091C3008160EA
:101AC0008093C3008091C00082608093C0008091A9
:101AD000C20081608093C20080917A00846080930C
:101AE0007A0080917A00826080937A0080917A00F7
:101AF000816080937A0080917A00806880937A0078
:101B00001092A70110929801109297018091D7002E
:101B100081608093D70080EA8093D80089B5806186
:101B200089BD89B5826089BD09B400FEFDCF0E94E0
:101B3000F8018091D8008F7C80618093D8008091DB
:101B4000E000807F8093E0008091E1008E7E8093B2
:101B5000E1008DE08093E200559A209A5D982898E4
:101B600083ED8BB98FEF85B980EC88B980E48EB9AD
:101B700083EF81BB81E080933C020E94C2052FEF7E
:101B80003FEF309343022093420281E090E0909334
:101B9000450280934402309347022093460290937B
:101BA00049028093480210922102109220028091F3
:101BB0003C0281110E94C20510922302109222025F
:101BC00080913C0281110E94C20520E132E03093F5
:101BD0000E0120930D0180916900837F84608093C2
:101BE0006900E99A30930C0120930B018091690000
:101BF0008C7F816080936900E89A412C512C3201DE
:101C00004394F2E02F2EF2E03F2E9924939471EC4E
:101C1000872E80919B0190919C011816190634F033
:101C200080919B0190919C0197FF66C080919B01E0
:101C300090919C019595879590939A018093990135
:101C40008091990190919A0190911F0299838A83C2
:101C50001B821C8280910902811128C09092FC0194
:101C60009092FD013092FF012092FE01109201023C
:101C70001092000221E631E03093F9012093F8013F
:101C800010920402109203021092060210920502B2
:101C90009092070290920802809202020E94A20390
:101CA00068EF71E00E94E703909209029D8241E093
:101CB00050E0BE016B5F7F4F8091FB010E94E90203
:101CC00097FD0AC08091FB0144E050E0BE016F5FC8
:101CD0007F4F80640E94E9022091990130919A011E
:101CE00080919B0190919C01220F331F821B930BCB
:101CF00090939C0180939B0149E2A42E41E0B42E75
:101D0000D12CC12C32E0C316D10409F463C043E0E6
:101D1000C416D10409F463C051E0C516D10409F416
:101D200053C0EFB0F12CEE0CEF2CEE1CFF08F501C8
:101D3000808191818E159F0511F181E090E0E11481
:101D4000F10411F090E080E020913C02F2E0CF1627
:101D5000D10409F449C033E0C316D10409F457C0D3
:101D600041E0C416D10409F44DC0919581959109C3
:101D7000909323028093220221110E94C205F50153
:101D8000E192F1925F01FFEFCF1ADF0A24E0C21661
:101D9000D10409F0B7CF25E1A22E21E0B22ED12C3B
:101DA000C12CF6013197E930F10508F03DC0E5524C
:101DB000F14F0C940A10190F600F670F690F6B0F2A
:101DC000700F720F740F760F8FB186FBEE24E0F860
:101DD000F12CADCF8FB185FBEE24E0F8F9CF8FB1B8
:101DE00084FBEE24E0F8F4CF909323028093220248
:101DF0002111C3CFF501E192F1925F01FFEFCF1AFC
:101E0000DF0A80CF9093210280932002F1CF919539
:101E10008195910990932102809320022111ADCFE9
:101E2000F501F182E082B7CF89B184FB002700F988
:101E300004C086B186FB002700F910E0F50180811F
:101E400091818017910741F18C2D90913D020115F0
:101E5000110509F455C0C916F8F4EC2DE695E69580
:101E6000E69520913A0230913B02E20FF32FF11DEB
:101E70008770A301920104C0220F331F441F551F16
:101E80008A95D2F7922F90958081892380838091C3
:101E90003C0281110E94C205F501019311935F017B
:101EA000FFEFCF1ADF0A2AE0C216D10409F079CF7A
:101EB00040E050E0452B09F4ACCE0E940000A5CED6
:101EC00009B110E0000F012F001F110BB7CF8CB12B
:101ED000B1CF83B1AACF83B185FB002700F9ADCF85
:101EE00083B1A8CF03B1EDCF89B1A4CF06B110E083
:101EF00086E0159507958A95E1F7027011279ECF28
:101F0000C91650F6EC2DE695E695E69520913A0235
:101F100030913B02E20FF32FF11D8770A301920174
:101F200004C0220F331F441F551F8A95D2F7C901E1
:101F30002081822BABCF052E97FB1EF400940E94CC
:101F4000B20F57FD07D00E94C50F07FC03D04EF417
:101F50000C94B20F50954095309521953F4F4F4FBF
:101F60005F4F089590958095709561957F4F8F4F45
:101F70009F4F08950E94E70FA59F900DB49F900D6D
:101F8000A49F800D911D11240895A1E21A2EAA1B71
:101F9000BB1BFD010DC0AA1FBB1FEE1FFF1FA21719
:101FA000B307E407F50720F0A21BB30BE40BF50B16
:101FB000661F771F881F991F1A9469F7609570959F
:101FC000809590959B01AC01BD01CF010895A29F22
:101FD000B001B39FC001A39F700D811D1124911DFD
:101FE000B29F700D811D1124911D089597FB072E3E
:101FF00016F4009407D077FD09D00E94101007FC5A
:1020000005D03EF4909581959F4F08957095619508
:102010007F4F0895EE0FFF1F0590F491E02D099476
:10202000AA1BBB1B51E107C0AA1FBB1FA617B707FE
:1020300010F0A61BB70B881F991F5A95A9F780951A
:102040009095BC01CD0108950F931F93CF93DF931B
:102050008230910510F482E090E0E0917202F091FC
:10206000730230E020E0B0E0A0E0309799F4211551
:10207000310509F44AC0281B390B24303105D8F545
:102080008A819B816115710589F1FB0193838283AC
:10209000FE0111C040815181028113814817590707
:1020A000E0F04817590799F4109761F012960C93D5
:1020B000129713961C933296CF01DF91CF911F9107
:1020C0000F9108950093720210937302F4CF2115BB
:1020D000310551F04217530738F0A901DB019A018D
:1020E000BD01DF01F801C1CFEF01F9CF9093730279
:1020F00080937202CDCFFE01E20FF31F8193919383
:102100002250310939832883D7CF20917002309132
:102110007102232B41F420913B0130913C0130931B
:102120007102209370022091390130913A012115FA
:10213000310541F42DB73EB740913D0150913E012C
:10214000241B350BE0917002F0917102E217F30746
:10215000A0F42E1B3F0B2817390778F0AC014E5F17
:102160005F4F2417350748F04E0F5F1F50937102E1
:1021700040937002819391939FCFF0E0E0E09CCF79
:10218000CF93DF930097E9F0FC013297138212821C
:10219000A0917202B0917302ED0130E020E010973F
:1021A000A1F420813181820F931F20917002309120
:1021B00071022817390709F061C0F0937102E093AA
:1021C0007002DF91CF910895EA01CE17DF07E8F59D
:1021D0004A815B819E0141155105B1F7E901FB83FD
:1021E000EA8349915991C40FD51FEC17FD0761F49B
:1021F000808191810296840F951FE90199838883DC
:10220000828193819B838A83F0E0E0E012968D9136
:102210009C9113970097B9F52D913C911197CD01A1
:102220000296820F931F209170023091710228173D
:10223000390739F6309751F51092730210927202F5
:10224000B0937102A0937002BCCFD383C28340814C
:102250005181840F951FC817D90761F44E5F5F4FF6
:1022600088819981480F591F518340838A819B81BE
:10227000938382832115310509F0B0CFF093730267
:10228000E09372029ECFFD01DC01C0CF1382128267
:10229000D7CFFB01DC0102C001900D9241505040AC
:0822A000D8F70895F894FFCF70
:1022A80000C18081000000FFFFFFFF2F042F042FD3
:1022B800042F042F040100010001000100010001A6
:1022C80000010001000100010001000100010001FE
:1022D8000000E1000000000000000074028000001F
:1022E8000000004B04B004720457040000000056BC
:1022F800017F03E4026C01B9017701950100000038
:0A23080000300577053C055704007E
:00000001FF
