:100000000C9403010C94C60D0C949F0D0C94780D68
:100010000C94510D0C942B010C942B010C942A0D73
:100020000C942B010C942B010C94890A0C94F80A63
:100030000C942B010C942B010C942B010C942B0190
:100040000C942B010C942B010C942B010C942B0180
:100050000C942B010C942B010C942B010C943F0A53
:100060000C942B010C942B010C942B010C942B0160
:100070000C942B010C942B010C942B010C942B0150
:100080000C942B010C942B010C942B010C942B0140
:100090000C942B010C942B010C942B010C942B0130
:1000A0000C942B010C942B010C942B0100000000EC
:1000B000000000002A2B28000000000000000000C3
:1000C0000000000000000000000000002C9EB4A012
:1000D000A1A2A434A6A7A5AE362D3738271E1F200F
:1000E000212223242526B333B62EB7B89F848586D4
:1000F0008788898A8B8C8D8E8F9091929394959618
:100100009798999A9B9C9D2F3130A3AD3504050695
:100110000708090A0B0C0D0E0F10111213141516F7
:100120001718191A1B1C1DAFB1B0B500080B00023F
:100130000202000009040000010202000005240080
:100140001001052401010104240206052406000112
:100150000705810310004009040100020A000000A5
:100160000705020240000007058302400000040367
:10017000090412010002EF0201404123378000010F
:100180000102030141726475696E6F204C4C43009B
:1001900041726475696E6F204D6963726F0005016D
:1001A0000906A1018502050719E029E715002501C7
:1001B00075019508810295017508810395067508FA
:1001C000150025730507190029738100C005010971
:1001D00002A1010901A100850105091901290315E1
:1001E00000250195037501810295017505810305BF
:1001F000010930093109381581257F75089503817A
:1002000006C0C000ED0D11241FBECFEFDAE0DEBF47
:10021000CDBF11E0A0E0B1E0EAE8F5E202C0059050
:100220000D92A437B107D9F722E0A4E7B1E001C0ED
:100230001D92A83EB207E1F711E0C3E0D1E004C08F
:100240002197FE010E947B11C230D107C9F70E949D
:100250008E0E0C94C3120C940000FC018091CA0114
:10026000882311F13FB7F89482E08093E900209150
:10027000F200822F90E01816190614F481E090E045
:10028000882339F0289A44E64093C9014091F1004F
:100290004083222339F02091F200211103C02BE684
:1002A0002093E8003FBF08958FEF9FEF0895CF930D
:1002B000DF931F92CDB7DEB76983DC01ED91FC912E
:1002C0000280F381E02D41E050E0BE016F5F7F4F7F
:1002D00009950F90DF91CF91089583E08093E90015
:1002E0008091F200882319F08AE38093E800089552
:1002F000CF93DF931F92CDB7DEB7FC018485958540
:1003000097FD08C02FEF3FEF358724870F90DF91CF
:10031000CF910895CE0101960E942D01019719F405
:10032000898190E0F3CF8FEF9FEFF0CF0F931F9372
:10033000CF93DF931F92CDB7DEB78C01FC0184858C
:10034000958597FF0BC0CE0101960E942D01019764
:1003500071F4898190E0F80195878487F80184859C
:1003600095850F90DF91CF911F910F9108958FEF99
:100370009FEFF1CFFC018485958597FD0BC09FB75A
:10038000F89482E08093E9008091F2009FBF90E0B2
:10039000019608959FB7F89482E08093E9008091D8
:1003A000F2009FBF90E008953FB7F8948091C50197
:1003B0009091C601A091C701B091C80126B5A89B34
:1003C00005C02F3F19F00196A11DB11D3FBFBA2FE7
:1003D000A92F982F8827BC01CD01620F711D811DA7
:1003E000911D42E0660F771F881F991F4A95D1F72C
:1003F0000895CF92DF92EF92FF920E94D4016B0199
:100400007C010E94D4016C197D098E099F09683E08
:10041000734081059105A8F3FF90EF90DF90CF9096
:10042000089529B1237030E0809174019091750195
:10043000880F991F880F991F822B932B823091056B
:1004400049F08B30910531F08D30910519F08430F1
:10045000910551F44091BE015091BF014F5F5F4F34
:100460005093BF014093BE018130910541F0AC0132
:10047000475051094230510510F00E9749F48091D0
:10048000BE019091BF0101979093BF018093BE017F
:10049000309375012093740108954091B6015091F5
:1004A000B7012091B4013091B50142175307B4F45C
:1004B0009091E8009570E1F39091E80092FD19C0E9
:1004C0008093F1008091B6019091B70101968F73EE
:1004D0009927892B19F48EEF8093E8008091B6015B
:1004E0009091B70101969093B7018093B60181E096
:1004F000089580E00895EF92FF920F931F93CF939A
:10050000DF93F82E192FE62E042F81E0860F880F37
:100510000E944D0283E00E944D02CF2DD12FEC0EA0
:10052000FD2EF11CCE15DF05B9F007FF13C0FE014B
:1005300084910E944D02182F80E00E944D02812379
:1005400021968111EFCFDF91CF911F910F91FF90F5
:10055000EF9008958881EDCF81E0F5CFDF92EF92A3
:10056000FF920F931F93CF93DF93D82E8A01EB0155
:100570007B01E40EF51ECE15DF0559F0D7FE12C043
:10058000FE0184910E944D0221968111F4CF0FEF5C
:100590001FEFC801DF91CF911F910F91FF90EF9056
:1005A000DF9008958881EECF2FB7F89487708093FD
:1005B000E9009091E800892F807295FF04C0909126
:1005C000F20080E4891B2FBF089583E00E94D402CB
:1005D00090E008957F928F929F92AF92BF92CF92B8
:1005E000DF92EF92FF920F931F93CF93DF93C82E6A
:1005F0008B017A018091CA01811110C08FEF9FEFAA
:10060000DF91CF911F910F91FF90EF90DF90CF90EE
:10061000BF90AF909F908F907F9008958091BA0186
:1006200080FF05C08091E00082608093E000CE2DC5
:10063000DF2DD12C8AEFB82E8C2D8770982E8C2D23
:100640008072882E8C2D8074782E9AE3A92E2097A4
:1006500019F4DD2009F44EC08C2D0E94D4028111C2
:1006600006C0BA94BB2051F20E94F901F0CF8C175A
:100670001D0611F00CF08C2F9FB7F8949092E900B2
:100680002091E80025FD02C09FBFE1CF282F30E078
:10069000C21BD30B882029F08150A0F01092F100EA
:1006A000FBCFF801C7FC0AC0815050F04191409344
:1006B000F100FACF44914093F10031968150D0F788
:1006C000020F131FDD2021F0A092E800D12CDCCF17
:1006D0008091E80085FD07C0A092E800DD24D39456
:1006E000209791F2F3CF209779F6772069F2A092C4
:1006F000E800CACF5D9A84E68093B901C70180CF34
:10070000CF93DF93EC0180913601882331F083E0B1
:100710000E94EA021816190634F081E090E09B83EB
:100720008A8380E090E0DF91CF910895615030F0AE
:100730002091F100FC0120830196F8CF289A84E6ED
:100740008093C90108958091AC0181110DC082E0B0
:100750008093A80184E08093A9011092AB011092CC
:10076000AA0181E08093AC0188EA91E008950F939B
:100770001F93CF93DF931F92CDB7DEB782E08983BB
:1007800042E450E06CE271E080E80E94AE020E9418
:10079000A303DC0112960D911C910115110589F03E
:1007A000D801ED91FC910280F381E02DBE016F5FD5
:1007B0007F4FC801099597FD04C0F8010085118598
:1007C000ECCF89810F90DF91CF911F910F91089508
:1007D000CF93DF93FC01DB01818114963C91149748
:1007E000682F630F7727771F683071059CF5C281EA
:1007F000D381209739F5B383A283908112969C937D
:10080000129713968C93139715968C911597890FC1
:10081000808390E080E0831708F52181C22FD0E02B
:10082000BE0160507F4F16964D915C911797480F0F
:10083000591FEA014881EB0148832F5F218301960C
:10084000EACFEA014885598541155105D1F7B987A5
:10085000A887D3CF80E0DF91CF91089581E0FBCFCF
:100860000895CF92DF92EF92FF920F931F93CF9351
:10087000DF936C01EB017B01E40EF51E10E000E05C
:10088000CE15DF0581F069916D30D1F3D601ED9180
:10089000FC910190F081E02DC6010995892B19F09A
:1008A0000F5F1F4FEDCFC801DF91CF911F910F91C7
:1008B000FF90EF90DF90CF900895089590E080E052
:1008C0000895DC01FB0191818081813A31F49D7FA3
:1008D00081E0913009F080E008958132E1F79B30AA
:1008E00029F482811F968C9381E008959A3099F7BC
:1008F000828150968C93F8CFFC014281FB012481C8
:1009000035814217130611F40C94610480E00895B8
:10091000DC01FB0188E4808389E4818384E48283B1
:100920001D969C911D979F709F5B93831D968D9143
:100930009C9124E0969587952A95E1F78F708F5BBF
:10094000848385E00895EF92FF920F931F93CF93D6
:10095000DF93FB012081213889F52381223271F553
:10096000DC0112964C91248135814217130631F532
:100970008C01FC01C385D485F12CE12C209791F0EA
:100980004C815D816A817B818E81811180E80E942A
:10099000AE028F3F980759F0E80EF91E0990D881F2
:1009A000C02DECCF81E0D8011F968C93C701DF9159
:1009B000CF911F910F91FF90EF90089590E080E00C
:1009C000F6CFCF93DF93CDB7DEB769970FB6F89424
:1009D000DEBF0FBECDBFFC01DB018C918F5F8C931E
:1009E0009E012D5F3F4F8DE0D9011D928A95E9F759
:1009F00029E0298384E08A8391E09D8383E08E83CC
:100A00002A8721E22B879C879D879F8722E2288B5C
:100A100027E02B8B25E02C8B8E8B20E430E0388F69
:100A20002F8B998F82818B8395858685998B8A8B75
:100A3000838180688D8B49E150E0BE016F5F7F4FFD
:100A400080E00E94AE0269960FB6F894DEBF0FBE3A
:100A5000CDBFDF91CF910895CF938091A0018111F7
:100A60002CC0C1E0C0939301C093940189E991E047
:100A7000909396018093950110929801109297019E
:100A80008DE491E09093900180938F0110929B01EF
:100A900010929A0110929D0110929C01C0939E01A8
:100AA000C0939F0181EC809399010E94A3036FE89A
:100AB00071E00E94E803C093A0018FE891E0CF911C
:100AC0000895CF92DF92EF92FF920F931F93CF93EF
:100AD000DF93D901E7016901F8012017310714F00C
:100AE0006801F90190E080E06623B9F1CA014C1574
:100AF0005D050CF4C6019F018E179F070CF49C0145
:100B00000A171B0734F4CF01821B930B9C012C0D99
:100B10003D1D0D2C000CEE08FF08032E000C440BAD
:100B2000550B2C193D094E095F09AEEFBFEF0E942E
:100B30002B119F01FF0F440B550B2C193D094E093A
:100B40005F090E940C11DA01C9018F5F9F47A1095B
:100B5000B1098883998382E090E0DF91CF911F9162
:100B60000F91FF90EF90DF90CF900895FC014281AC
:100B7000FB01248135814217130611F40C946104A2
:100B800080E00895AF92BF92CF92DF92EF92FF92F2
:100B90000F931F93CF93DF931F92CDB7DEB77C01E6
:100BA00069836A01590141E050E0BE016F5F7F4FE8
:100BB000FC0183810E94EA028C0197FD0BC0F701C2
:100BC0008381A501B60180640E94EA02080F191F03
:100BD00097FD8C01C8010F90DF91CF911F910F916C
:100BE000FF90EF90DF90CF90BF90AF900895EF927D
:100BF000FF920F931F93CF93DF93FB012081213846
:100C000071F52381223259F5DC0112964C91248131
:100C100035814217130619F5EC010B851C85F12C63
:100C2000E12C0115110589F0F8014481558162819B
:100C3000738180E80E94AE028F3F980749F0E80E6A
:100C4000F91ED8010D911C91ECCF81E08F87C7016F
:100C5000DF91CF911F910F91FF90EF90089590E059
:100C600080E0F6CFCF93DF93CDB7DEB769970FB6AD
:100C7000F894DEBF0FBECDBFFC01DB018C918F5F0E
:100C80008C939E012D5F3F4F8DE0D9011D928A9577
:100C9000E9F729E0298384E08A8391E09D8383E05A
:100CA0008E832A8721E22B879C879D879F8722E25C
:100CB000288B27E02B8B25E02C8B8E8B20E430E0DB
:100CC000388F2F8B998F82818B8395858685998B21
:100CD0008A8B838180688D8B49E150E0BE016F5F14
:100CE0007F4F80E00E94AE0269960FB6F894DEBF97
:100CF0000FBECDBFDF91CF910895CF938091870133
:100D000081112CC0C1E0C0937A01C0937B0180E8BF
:100D100091E090937D0180937C0110927F0110926D
:100D20007E0181E491E090937701809376011092A7
:100D30008201109281011092840110928301C0936C
:100D40008501C093860181EC809380010E94A303FA
:100D500066E771E00E94E803C093870186E791E0AF
:100D6000CF910895EF92FF921F93CF93DF93EC0101
:100D7000162FE8E7E60F683880F4E62FF0E067FF0B
:100D80005BC0E058F10921E030E001C0220FEA9594
:100D9000EAF78C81822B8C83E0E08E818E17D9F06C
:100DA0008F81E817C1F08885E817A9F08985E817D1
:100DB00091F08A85E81779F08B85E81761F0DE01FC
:100DC000169690E080E02D9121115AC08C0F9D1F46
:100DD000DC011696EC930E947D0628E030E0AE011F
:100DE0004C5F5F4F62E00E94C205EE24E394F12C59
:100DF000183868F11858DE0186E0112341F0169684
:100E00009C911697191303C016961C921697815041
:100E100011968111F2CF0E947D06AE014C5F5F4FAB
:100E200028E030E062E00E94C205C701DF91CF9167
:100E30001F91FF90EF900895E455FF4FE491E11169
:100E400018C081E090E09B838A83F12CE12CE12F94
:100E5000F0E017FF21C0E058F10981E090E001C007
:100E6000880FEA95EAF780959C8189238C8310E0AE
:100E7000C2CFE7FF92CF8C8182608C83EF778DCFDA
:100E800001968630910509F09ECF81E090E09B832A
:100E90008A83F12CE12CACCFE455FF4F1491112340
:100EA00009F4C3CF17FFA7CF8C818D7F8C831F7769
:100EB000A2CFCF92DF92EF92FF920F931F93CF9327
:100EC000DF93CDB7DEB7C659D1090FB6F894DEBFB0
:100ED0000FBECDBF8C01DC015B961C921E925A970F
:100EE0005E961C925E9793961C921E9292978FEF3D
:100EF00093E095969C938E93949797961C921E924E
:100F0000969799969C938E9398979B961C921E9277
:100F10009A979D969C938E939C979F961C921E9257
:100F20009E97D1969C938E93D097D3961C921E92A7
:100F3000D297D5969C938E93D497D7961C921E9257
:100F4000D697D9969C938E93D897DB961C921E9237
:100F5000DA97DD969C938E93DC97DF961C921E9217
:100F6000DE97F801E05CFF4F918380833296118217
:100F7000108232969183808332961182108232964B
:100F8000918380833296118210823296918380837E
:100F90003296608399E0F801958F178EE3E0909682
:100FA000EC93909791961C9225E0298381E08A83A7
:100FB0009B832C8371EA7D838E8335E83F8368872A
:100FC00029879A8739E13B878C8739E23D879E875D
:100FD00035E13F87188A35E2398B8A8B65E76B8B61
:100FE0008C8B55E95D8B9E8B35E53F8B188E35E6F6
:100FF000398F1A8E41E84B8F32E03C8F6D8F8E8F88
:101000005F8FF7E0F8A349A3EAA32BA38CA39DA3CA
:101010008EA326E12FA388A780E889A786E28AA766
:101020008FEF8BA78FE78CA76DA780E18EA75FA7B7
:1010300038AB79AB1AAA9BAB80E38CAB9DAB81E359
:101040008EAB4FAB38AF80EC89AF8AAF8AE390E0CC
:101050000E9495116C018AE3FE013196D601019040
:101060000D928A95E1F787E090E00E9495117C014E
:10107000FC0111821082D382C2828AE390E09583C0
:10108000848316820E942C05FC01A385B4851097E9
:1010900009F05EC0F486E38685859685D7011496AF
:1010A0002D913C91820F931F96878587F801958D2E
:1010B000892F869586958695977009F051C0868F01
:1010C000F801F68C8F2D90E00E949511D8015B9667
:1010D0009C938E935A97F801E15BFF4F81E05F96F6
:1010E0009C91911101C080E094E09F0D890F808355
:1010F000F8011182108213821282158214821782E3
:101100001682118610861386128615861486178617
:101110001686118A108A138A128A158A148A8FEF0A
:101120009FEF978B868B918F808F90E080E0D80126
:101130005E962C915E9728171906A9F0A4F05A968E
:10114000ED91FC91E80FF91F10820196F0CFDC01C0
:101150008D919C9111970097D1F7ED92FC929CCFC5
:101160008F5F868FADCFCA56DF4F0FB6F894DEBFC4
:101170000FBECDBFDF91CF911F910F91FF90EF90E8
:10118000DF90CF9008954F925F926F927F928F92EF
:101190009F92AF92BF92CF92DF92EF92FF920F9306
:1011A0001F93CF93DF93CDB7DEB76C014DB65EB61C
:1011B0003C012FE4620E711CF30180812DB73EB714
:1011C000281B31090FB6F8943EBF0FBE2DBF8DB757
:1011D0009EB701964C01F601A68CB12CDC0190E083
:1011E00080E0F6018A159B054CF4228D338DF901C0
:1011F000E80FF91F20812D930196F3CF878D882367
:1012000041F18689978928E097FD09C068E671E079
:101210000E9467116DE270E00E946711262FF601AF
:10122000808D918D68E097FD08C068E671E00E94AE
:1012300067116DE270E00E946711F401EA0DFB1D79
:1012400030E1639FB0011124262B2083C501019654
:101250005C017401EA0CFB1CF60104A115A122A19A
:1012600033A14081518160A16170C6010E94610576
:10127000A80EB91E7401EA0CFB1CF60100A511A50D
:1012800026A137A14281538160A166956170C60194
:101290000E946105A80EB91E7401EA0CFB1CF60140
:1012A00004A515A522A533A54481558160A162FB43
:1012B000662760F9C6010E946105A80EB91E740177
:1012C000EA0CFB1CF60100A911A926A537A5468149
:1012D000578160A163FB662760F9C6010E94610522
:1012E000A80EB91E7401EA0CFB1CF60104A915A98D
:1012F00022A933A94085518560A162956170C6011C
:101300000E946105A80EB91E7401EA0CFB1CF601CF
:1013100000AD11AD26A937A94285538560A165FBB3
:10132000662760F9C6010E946105A80EB91E740106
:10133000EA0CFB1CF60104AD15AD22AD33AD4685BC
:10134000578561A16170C6010E946105A80EB91E92
:101350007401EA0CFB1CF601E05CFF4F0081118177
:10136000F60126AD37AD4485558561A1669561705E
:10137000C6010E946105A80EB91E7401EA0CFB1C8F
:10138000F601EC5BFF4F00811181329720813181A2
:10139000F6014089518961A162FB662760F9C601A7
:1013A0000E946105A80EB91E7401EA0CFB1CF6012F
:1013B000E85BFF4F00811181329720813181F60176
:1013C0004289538961A163FB662760F9C6010E94C7
:1013D00061058A0D9B1D7401E80EF91EF601E45BA0
:1013E000FF4F00811181329720813181F6014489BC
:1013F000558961A162956170C6010E9461050E94D4
:101400002C055C01F3014081F601E25BFF4F808116
:1014100050E07A01FFEFEF1AFF0A2DB73EB72E1901
:101420003F090FB6F8943EBF0FBE2DBF0DB71EB7D4
:101430000F5F1F4FEDB7FEB78183B401C80101965E
:101440000E94BA12F5018381A701B80180640E944D
:10145000EA020FB6F8945EBE0FBE4DBEDF91CF918B
:101460001F910F91FF90EF90DF90CF90BF90AF90C2
:101470009F908F907F906F905F904F9008951F92F4
:101480000F920FB60F9211242F933F938F939F9338
:10149000AF93BF938091C1019091C201A091C3010C
:1014A000B091C4013091C00123E0230F2D3758F5CE
:1014B0000196A11DB11D2093C0018093C10190939D
:1014C000C201A093C301B093C4018091C501909162
:1014D000C601A091C701B091C8010196A11DB11D1F
:1014E0008093C5019093C601A093C701B093C80132
:1014F000BF91AF919F918F913F912F910F900FBE10
:101500000F901F90189526E8230F0296A11DB11D7C
:10151000D2CF1F920F920FB60F9211248F939F93E9
:101520008091E1009091E100937F9093E10083FF2F
:101530000FC01092E90091E09093EB001092EC0044
:1015400092E39093ED001092CA0198E09093F0001E
:1015500082FF22C093E09093E9009091F2009923DA
:1015600019F09AE39093E8009091B901992341F022
:101570009091B90191509093B901911101C05D987A
:101580009091C901992341F09091C9019150909394
:10159000C901911101C0289884FF18C08091E20010
:1015A0008E7E81608093E2008091E1008F7E809347
:1015B000E1008091BA018E7E80618093BA019F9193
:1015C0008F910F900FBE0F901F90189580FFF7CF4F
:1015D0008091E2008E7E80618093E2008091E10044
:1015E0008E7E8093E1008091BA018E7E8160E5CF8E
:1015F0001F920F920FB60F921124CF92DF92EF92AB
:10160000FF920F931F932F933F934F935F936F938B
:101610007F938F939F93AF93BF93EF93FF93CF935A
:10162000DF93CDB7DEB76C97DEBFCDBF1092E90078
:101630008091E80083FF25C068E0CE0145960E94B6
:10164000960382EF8093E8008D8987FF39C09091DF
:10165000E80090FFFCCF982F907609F034C19E8966
:101660004F89588D2F89F88C911131C0803861F5E0
:101670008091BB018093F1001092F1008EEF809376
:10168000E8006C960FB6F894DEBF0FBECDBFDF91B9
:10169000CF91FF91EF91BF91AF919F918F917F91EA
:1016A0006F915F914F913F912F911F910F91FF90FB
:1016B000EF90DF90CF900F900FBE0F901F90189576
:1016C0009EEF9093E800C7CF1092F100D5CF9130F4
:1016D00059F48111D3CF4130510581F68091BB017E
:1016E0008D7F8093BB01CACF933049F48111C6CF5F
:1016F0004130510519F68091BB018260F2CF9530DF
:1017000041F48091E80080FFFCCF20682093E30043
:10171000B5CF963009F0A9C00B8D1C8D22E0109238
:10172000E9001092B7011092B601F2122EC0109289
:10173000B5011092B4010E94B7031F8299E099830A
:10174000FA8291E09E8390EA98879AEF9987209198
:10175000B6013091B701275F3F4F3C832B838D83C8
:101760001092E9001092B7011092B6011093B501E2
:101770000093B40149E050E0BE016F5F7F4F80E00D
:101780000E94AE020E94B70379CF1093B501009377
:10179000B4010E94A303DC0112960D911C91011566
:1017A000110509F451C1D801ED91FC910480F58136
:1017B000E02DBE016B5E7F4FC8010995009709F0CF
:1017C0003EC1F80100851185EACFF3E0FF120EC09B
:1017D0008F89882309F440C0823061F440E86DE0CD
:1017E00080E991E00E947B02811148CF81E28093E1
:1017F000EB0047CF813029F440E86BE084E891E0CA
:10180000F1CF833099F70E94A303DC011296ED908B
:10181000FC908E010F5F1F4F6801E114F10479F015
:10182000D701ED91FC910680F781E02DB801C70149
:101830000995080F111DF701E084F184EECFD8015E
:101840001C92F60101900020E9F73197BF016C1955
:101850007D0940E0C601C6CF6EE671E0FB01449110
:1018600050E080E80E94AE0209CF973009F4BECF65
:10187000983021F481E08093F10000CF993009F095
:10188000FDCE837009F0B2CFE1E0F1E081E031E01C
:1018900096E32191222371F08093E9003093EB00CD
:1018A000DF0111972C912093EC009093ED008F5F56
:1018B000873079F78EE78093EA001092EA008F89EB
:1018C0008093CA01DBCE8B8D9C8D1092E900109223
:1018D000B7011092B6019093B5018093B401898D40
:1018E000811192C08E899D89913A49F4813209F023
:1018F0007DCF47E050E06FE271E080E0B3CF9132FE
:1019000009F074CF833269F48F89988DB0E0A0E03C
:101910008093070190930801A0930901B0930A01F5
:10192000ADCE803269F48091E80082FFFCCF67E0A1
:101930008FE291E00E9496038BEF8093E8009ECEA9
:10194000823209F09BCE8F8980933601EEEFFFE75C
:10195000859194918B3F9C4D51F1E0E0F8E08091AE
:101960002F0190913001A0913101B0913201803B63
:101970009440A105B105F1F48091360180FD1AC0B3
:10198000EE3F8AE0F80789F587E797E79183808340
:10199000809160008093B80188E19BE00FB6F894D5
:1019A000A895809360000FBE9093600067CEEEEF25
:1019B000FAE0D5CF808191818737974709F05ECED5
:1019C000A895809160008861809360008091B80143
:1019D00080936000EE3F2AE0F20789F08091FE0AD2
:1019E0009091FF0A9183808349CE808191818737CE
:1019F000980751F29093FF0A8093FE0AC5CF109288
:101A0000FF0A1092FE0A3ACE0E94A303DC0112964E
:101A10000D911C910115110509F4E8CED801ED9145
:101A2000FC910190F081E02DBE016B5E7F4FC801FB
:101A30000995811123CEF80100851185EBCF181689
:101A400019060CF41BCED2CEF1E0FF12BECE62E737
:101A500071E004CF1F920F920FB60F9211242F93B3
:101A60003F934F935F936F937F938F939F93AF9326
:101A7000BF93EF93FF93E0911301F0911401099547
:101A8000FF91EF91BF91AF919F918F917F916F9156
:101A90005F914F913F912F910F900FBE0F901F902C
:101AA00018951F920F920FB60F9211242F933F9308
:101AB0004F935F936F937F938F939F93AF93BF9356
:101AC000EF93FF93E0911101F09112010995FF91BD
:101AD000EF91BF91AF919F918F917F916F915F91A6
:101AE0004F913F912F910F900FBE0F901F9018951F
:101AF0001F920F920FB60F9211242F933F934F9383
:101B00005F936F937F938F939F93AF93BF93EF9365
:101B1000FF93E0910F01F09110010995FF91EF9172
:101B2000BF91AF919F918F917F916F915F914F91F5
:101B30003F912F910F900FBE0F901F9018951F92FD
:101B40000F920FB60F9211242F933F934F935F93F1
:101B50006F937F938F939F93AF93BF93EF93FF9375
:101B6000E0910D01F0910E010995FF91EF91BF9168
:101B7000AF919F918F917F916F915F914F913F9125
:101B80002F910F900FBE0F901F9018951F920F92DC
:101B90000FB60F9211242F933F934F935F936F9340
:101BA0007F938F939F93AF93BF93EF93FF93E091B6
:101BB0000B01F0910C010995FF91EF91BF91AF914D
:101BC0009F918F917F916F915F914F913F912F9155
:101BD0000F900FBE0F901F9018951092CE0110928B
:101BE000CD0188EE93E0A0E0B0E08093CF01909328
:101BF000D001A093D101B093D20189E591E09093F7
:101C0000CC018093CB018FEF9FEF9093D80180930D
:101C1000D70110922C0210922B028BE691E0909348
:101C20002A028093290280912102811113C010920F
:101C30001C0210921B028EE991E090931E02809389
:101C40001D028FE290E09093200280931F0281E0BA
:101C5000809321020E947D06FC01A385B485109724
:101C600009F047C08BE192E094878387858596854C
:101C700020911F0230912002820F931F9687858743
:101C80001092430280913B02811113C010923602E0
:101C9000109235028DEC91E09093380280933702D8
:101CA00086E390E090933A028093390281E080933A
:101CB0003B020E947D06FC01A385B485109721F5A7
:101CC00085E392E094878387858596852091390204
:101CD00030913A02820F931F9687858763E084E4F0
:101CE00092E00E94590764E084E992E00C9459075D
:101CF000DC018D919C9111970097D1F78BE192E0D7
:101D00008D939C93B3CFDC018D919C91119700979B
:101D1000D1F785E392E08D939C93D6CFCF93DF9359
:101D200000D000D0CDB7DEB7789484B5826084BD92
:101D300084B5816084BD85B5826085BD85B58160CF
:101D400085BD80916E00816080936E00109281004D
:101D50008091810082608093810080918100816008
:101D600080938100809180008160809380008091C9
:101D700091008260809391008091910081608093B6
:101D80009100809190008160809390008091C100CB
:101D900084608093C1008091C10082608093C10003
:101DA0008091C10081608093C1008091C3008160F7
:101DB0008093C3008091C00082608093C0008091B6
:101DC000C20081608093C20080917A008460809319
:101DD0007A0080917A00826080937A0080917A0004
:101DE000816080937A0080917A00806880937A0085
:101DF0001092CA011092BB011092BA018091D700D3
:101E000081608093D70080EA8093D80089B5806193
:101E100089BD89B5826089BD09B400FEFDCF0E94ED
:101E2000F9018091D8008F7C80618093D8008091E7
:101E3000E000807F8093E0008091E1008E7E8093BF
:101E4000E1008DE08093E200559A209A5D982898F1
:101E500083ED8BB98FEF85B980EC88B980E48EB9BA
:101E600083EF81BB81E08093600284E492E00E9472
:101E7000C3082FEF3FEF309367022093660281E0A3
:101E800090E0909369028093680230936B022093F4
:101E90006A0290936D0280936C0210924502109238
:101EA000440280916002882321F084E492E00E9441
:101EB000C308109247021092460280916002882364
:101EC00021F084E492E00E94C30881E08093B00294
:101ED00084E992E00E94C3082FEF3FEF3093B702EE
:101EE0002093B60281E090E09093B9028093B8020B
:101EF0003093BB022093BA029093BD028093BC0240
:101F000010929502109294028091B002882321F0E1
:101F100084E992E00E94C308109297021092960200
:101F20008091B002882321F084E992E00E94C308E6
:101F300021E132E030930E0120930D018091690080
:101F4000837F846080936900E99A30930C01209329
:101F50000B01809169008C7F816080936900E89A11
:101F6000412C512C3201439470E0872E70E0972E63
:101F70008091BE019091BF011816190634F080912E
:101F8000BE019091BF0197FF2EC08091BE0190913C
:101F9000BF01959587959093BD018093BC01809179
:101FA000BC019091BD019091430299838A831B8269
:101FB0001C820E947D0624E030E0AE014F5F5F4F3F
:101FC00061E00E94C2052091BC013091BD01809169
:101FD000BE019091BF01220F331F821B930B909380
:101FE000BF018093BE0137E2A32E31E0B32ED12C86
:101FF000C12C22E0C216D10409F465C033E0C31637
:10200000D10409F465C041E0C416D10409F455C0F7
:10201000EFB0F12CEE0CEF2CEE1CFF08F5018081E7
:1020200091818E159F0529F181E090E0E114F10482
:1020300011F090E080E020916002F2E0CF16D10430
:1020400009F44BC033E0C316D10409F459C041E090
:10205000C416D10409F44FC09195819591099093CC
:10206000470280934602222321F084E492E00E94FA
:10207000C308F501E192F1925F01FFEFCF1ADF0A89
:1020800024E0C216D10409F0B4CF95E1A92E91E065
:10209000B92ED12CC12CF6013197E830F10508F0AA
:1020A0003CC0EB5AFF4E0C947B1193109810E21039
:1020B000E410E610EB10ED10EF108FB186FBEE246C
:1020C000E0F8F12CABCF8FB185FBEE24E0F8F9CF2F
:1020D0008FB184FBEE24E0F8F4CF90934702809315
:1020E00046022111C2CFF501E192F1925F01FFEFAB
:1020F000CF1ADF0A7ECF9093450280934402F1CF3E
:102100009195819591099093450280934402211104
:10211000ACCFF501F182E082B8CF89B184FB002712
:1021200000F910E00BC086B186FB002700F9F9CF5B
:1021300009B110E0000F012F001F110BF501808184
:1021400091818017910759F18C2D909161020115B1
:10215000110509F446C0C91610F5EC2DE695E69573
:10216000E69520915E0230915F02E20FF32FF11DA0
:102170008770A301920104C0220F331F441F551F13
:102180008A95D2F7922F90958081892380838091C0
:102190006002882321F084E492E00E94C308F501E4
:1021A000019311935F01FFEFCF1ADF0A29E0C216F6
:1021B000D10409F070CF8114910409F4D9CE0E94A2
:1021C0000000D6CE8CB1B0CF83B1A8CF83B185FB50
:1021D000002700F9A6CF83B1A7CF03B1AACF89B159
:1021E000A3CFC916E0F6EC2DE695E695E69520918D
:1021F0005E0230915F02E20FF32FF11D8770A301A1
:10220000920104C0220F331F441F551F8A95D2F735
:10221000C9012081822BBACF052E97FB1EF40094B2
:102220000E94231157FD07D00E94361107FC03D0EE
:102230004EF40C94231150954095309521953F4FC5
:102240004F4F5F4F089590958095709561957F4FA2
:102250008F4F9F4F08950E945811A59F900DB49FD6
:10226000900DA49F800D911D11240895A1E21A2EB6
:10227000AA1BBB1BFD010DC0AA1FBB1FEE1FFF1F2A
:10228000A217B307E407F50720F0A21BB30BE40B7A
:10229000F50B661F771F881F991F1A9469F76095C1
:1022A0007095809590959B01AC01BD01CF0108957B
:1022B000A29FB001B39FC001A39F700D811D112487
:1022C000911DB29F700D811D1124911D089597FBE2
:1022D000072E16F4009407D077FD09D00E948111D3
:1022E00007FC05D03EF4909581959F4F0895709519
:1022F00061957F4F0895EE0FFF1F0590F491E02D3B
:102300000994AA1BBB1B51E107C0AA1FBB1FA6173C
:10231000B70710F0A61BB70B881F991F5A95A9F78E
:1023200080959095BC01CD0108950F931F93CF9395
:10233000DF938230910510F482E090E0E091E602B4
:10234000F091E70230E020E0B0E0A0E0309799F4AF
:102350002115310509F44AC0281B390B24303105F9
:10236000D8F58A819B816115710589F1FB01938301
:102370008283FE0111C0408151810281138148177F
:102380005907E0F04817590799F4109761F0129631
:102390000C93129713961C933296CF01DF91CF9135
:1023A0001F910F9108950093E6021093E702F4CF76
:1023B0002115310551F04217530738F0A901DB010F
:1023C0009A01BD01DF01F801C1CFEF01F9CF909370
:1023D000E7028093E602CDCFFE01E20FF31F819367
:1023E00091932250310939832883D7CF2091E40279
:1023F0003091E502232B41F42091390130913A01CB
:102400003093E5022093E4022091370130913801A6
:102410002115310541F42DB73EB740913B01509154
:102420003C01241B350BE091E402F091E502E21738
:10243000F307A0F42E1B3F0B2817390778F0AC01E7
:102440004E5F5F4F2417350748F04E0F5F1F5093C4
:10245000E5024093E402819391939FCFF0E0E0E0A6
:102460009CCFCF93DF930097E9F0FC013297138262
:102470001282A091E602B091E702ED0130E020E087
:102480001097A1F420813181820F931F2091E402E3
:102490003091E5022817390709F061C0F093E50291
:1024A000E093E402DF91CF910895EA01CE17DF07B0
:1024B000E8F54A815B819E0141155105B1F7E901BB
:1024C000FB83EA8349915991C40FD51FEC17FD078F
:1024D00061F4808191810296840F951FE9019983AF
:1024E0008883828193819B838A83F0E0E0E0129667
:1024F0008D919C9113970097B9F52D913C9111976F
:10250000CD010296820F931F2091E4023091E502E3
:102510002817390739F6309751F51092E7021092D3
:10252000E602B093E502A093E402BCCFD383C2835A
:1025300040815181840F951FC817D90761F44E5F00
:102540005F4F88819981480F591F518340838A8149
:102550009B81938382832115310509F0B0CFF093DD
:10256000E702E093E6029ECFFD01DC01C0CF1382BB
:102570001282D7CFFB01DC0102C001900D924150C5
:0A2580005040D8F70895F894FFCFFB
:10258A0000C18081000000FFFFFFFF3004300430EB
:10259A0004300430040100010001000100010001BF
:1025AA00000100010001000100010001000100001A
:1025BA00E10000000000000000E8028000000000C6
:1025CA0000B6053206F7058804000000007C04E125
:1025DA0004A30488040000000057018003E5026D8B
:1025EA0001BA017801960100000000B20631045ECA
:0425FA00045D040078
:00000001FF
